{
  "data": {
    "bytecode": {
      "linkReferences": {},
      "object": "6080604052620124f8600655600780546001600160d81b031916750124f8000000000000076c0000000000e4e1c006000017905534801561003f57600080fd5b50600280546001600160a01b03191633179055611986806100616000396000f3fe608060405234801561001057600080fd5b50600436106101735760003560e01c80638da5cb5b116100de578063c573a9b611610097578063da67129a11610071578063da67129a14610359578063e99edf411461036c578063ea55e31914610384578063f2fde38b146103ae57600080fd5b8063c573a9b61461032d578063cf3c328714610335578063d7659c5a1461034657600080fd5b80638da5cb5b1461029457806390cadc5a146102be578063b6b7b3cf146102d1578063b6c4ab71146102e9578063b6ecc1cc14610307578063b8bec6a01461031a57600080fd5b806368db00e21161013057806368db00e21461021d578063715018a61461023057806380605c931461023857806383082bb21461024b5780638cd03f771461026e5780638d2adf321461028157600080fd5b806311e776fe14610178578063194dc6c81461018d5780631c4bc729146101a45780632e14edaa146101d057806339ad083d146101e35780635d0d7166146101f6575b600080fd5b61018b610186366004611612565b6103c1565b005b6004545b6040519081526020015b60405180910390f35b600754630100000090046001600160401b03165b6040516001600160401b03909116815260200161019b565b61018b6101de36600461150c565b6103ff565b61018b6101f1366004611672565b610456565b610209610204366004611612565b6104a2565b60405161019b9897969594939291906117ff565b61019161022b3660046115b4565b6105b1565b61018b610876565b61018b610246366004611672565b6108f7565b61025e610259366004611612565b610945565b604051901515815260200161019b565b61025e61027c366004611612565b610a69565b61018b61028f366004611657565b610b92565b6000546201000090046001600160a01b03166040516001600160a01b03909116815260200161019b565b61018b6102cc36600461150c565b610bef565b600754600160581b90046001600160401b03166101b8565b600754610100900460ff165b60405160ff909116815260200161019b565b61018b610315366004611657565b610c40565b61018b6103283660046115f7565b610c9d565b600554610191565b60075462010000900460ff166102f5565b61019161035436600461152e565b610ce0565b61025e61036736600461162b565b611058565b600754600160981b90046001600160401b03166101b8565b610397610392366004611612565b61125c565b60405161019b9b9a99989796959493929190611860565b61018b6103bc36600461150c565b6113ba565b3360009081526001602052604090205460ff16156103fa5760405162461bcd60e51b81526004016103f190611768565b60405180910390fd5b600655565b6000546201000090046001600160a01b0316331461042f5760405162461bcd60e51b81526004016103f190611733565b6001600160a01b03166000908152600160208190526040909120805460ff19169091179055565b3360009081526001602052604090205460ff16156104865760405162461bcd60e51b81526004016103f190611768565b6007805460ff9092166101000261ff0019909216919091179055565b600080600080600080600080600060048a815481106104c3576104c3611919565b60009182526020918290206040805160e08101825260059390930290910180546001600160a01b0390811684526001820154811694840194909452600281015490931690820152600380830154606083015260048301546001600160401b038082166080850152600160401b82041660a084015291929160c0840191600160801b90910460ff169081111561055a5761055a611903565b600381111561056b5761056b611903565b81525050905089816000015182602001518360400151846060015185608001518660a001518760c001519850985098509850985098509850985050919395975091939597565b60006001600160a01b0384166105d95760405162461bcd60e51b81526004016103f19061169a565b6007546001600160401b03600160581b90910481169084161080159061061557506007546001600160401b03600160981b909104811690841611155b6106875760405162461bcd60e51b815260206004820152603f60248201527f45746e795374616b696e673a20616d6f756e74206d757374206265206265747760448201527f65656e206d696e696d756d20616e64206d6178696d756d2076616c756573210060648201526084016103f1565b6040805160e0810182523381526000602082018181526001600160a01b0388811694840194855242606085019081526001600160401b038981166080870190815289821660a0880190815260c0880187815260048054600181018255985288517f8a35acfbc15ff81a39ae7d344fd709f28e8600b4aa8c65c6b64bfe7fe36bd19b600590990298890180549188166001600160a01b031992831617815597517f8a35acfbc15ff81a39ae7d344fd709f28e8600b4aa8c65c6b64bfe7fe36bd19c8a01805491891691831691909117905599517f8a35acfbc15ff81a39ae7d344fd709f28e8600b4aa8c65c6b64bfe7fe36bd19d89018054919097169a169990991790945591517f8a35acfbc15ff81a39ae7d344fd709f28e8600b4aa8c65c6b64bfe7fe36bd19e86015590517f8a35acfbc15ff81a39ae7d344fd709f28e8600b4aa8c65c6b64bfe7fe36bd19f909401805492518216600160401b026001600160801b0319909316949091169390931717808355935192939092919060ff60801b1916600160801b83600381111561082157610821611903565b02179055505060045461083791506001906118de565b60405181815290915033907fd7490e816438b23e3486aef50b4dfd914be81021d62b1db81226227291f6c85b9060200160405180910390a29392505050565b6000546201000090046001600160a01b031633146108a65760405162461bcd60e51b81526004016103f190611733565b60008054604051620100009091046001600160a01b0316907f8be0079c531659141344cd1fd0a4f28419497f9722a3daafe3b4186f6b6457e0908390a36000805462010000600160b01b0319169055565b3360009081526001602052604090205460ff16156109275760405162461bcd60e51b81526004016103f190611768565b6007805460ff909216620100000262ff000019909216919091179055565b60045460009082106109695760405162461bcd60e51b81526004016103f1906116e7565b60006004838154811061097e5761097e611919565b6000918252602090912060059091020180549091506001600160a01b03163314610a045760405162461bcd60e51b815260206004820152603160248201527f45746e795374616b696e673a204f6e6c79207374616b65722063616e2063616e60448201527063656c207468697320726571756573742160781b60648201526084016103f1565b60006004820154600160801b900460ff166003811115610a2657610a26611903565b14610a435760405162461bcd60e51b81526004016103f1906117b1565b6004810180546003919060ff60801b1916600160801b835b021790555060019392505050565b6004546000908210610a8d5760405162461bcd60e51b81526004016103f1906116e7565b600060048381548110610aa257610aa2611919565b6000918252602090912060059091020160028101549091506001600160a01b03163314610b375760405162461bcd60e51b815260206004820152603960248201527f45746e795374616b696e673a204f6e6c79206e6f6465206f70657261746f722060448201527f63616e206465636c696e6520746869732072657175657374210000000000000060648201526084016103f1565b60006004820154600160801b900460ff166003811115610b5957610b59611903565b14610b765760405162461bcd60e51b81526004016103f1906117b1565b6004810180546002919060ff60801b1916600160801b83610a5b565b3360009081526001602052604090205460ff1615610bc25760405162461bcd60e51b81526004016103f190611768565b600780546001600160401b03909216600160581b0267ffffffffffffffff60581b19909216919091179055565b6000546201000090046001600160a01b03163314610c1f5760405162461bcd60e51b81526004016103f190611733565b6001600160a01b03166000908152600160205260409020805460ff19169055565b3360009081526001602052604090205460ff1615610c705760405162461bcd60e51b81526004016103f190611768565b600780546001600160401b03909216600160981b0267ffffffffffffffff60981b19909216919091179055565b3360009081526001602052604090205460ff1615610ccd5760405162461bcd60e51b81526004016103f190611768565b6007805460ff1916911515919091179055565b60006001600160a01b038816610d085760405162461bcd60e51b81526004016103f19061169a565b6001600160a01b038616610d765760405162461bcd60e51b815260206004820152602f60248201527f45746e795374616b696e673a207265776172642061646472657373206973207460448201526e6865207a65726f206164647265737360881b60648201526084016103f1565b6000876001600160401b031611610de75760405162461bcd60e51b815260206004820152602f60248201527f45746e795374616b696e673a207265717569726520616d6f756e7420746f206260448201526e06520686967686572207468656e203608c1b60648201526084016103f1565b60408051610140810182523381526001600160a01b03888116602083019081528b821693830193845242606084019081526001600160401b038c8116608086019081528b821660a0870190815260ff8c811660c089019081528c151560e08a019081528c15156101008b0190815260006101208c0181815260058054600181018255928190528d517f036b6384b5eca791c62761152d0c79bb0604c104a5fb6f4eb0703f3154bb3db0939091029283018054918e166001600160a01b03199283161781559b517f036b6384b5eca791c62761152d0c79bb0604c104a5fb6f4eb0703f3154bb3db184018054918f169183169190911790559d517f036b6384b5eca791c62761152d0c79bb0604c104a5fb6f4eb0703f3154bb3db28301805491909d169e169d909d17909a5596517f036b6384b5eca791c62761152d0c79bb0604c104a5fb6f4eb0703f3154bb3db38a015593517f036b6384b5eca791c62761152d0c79bb0604c104a5fb6f4eb0703f3154bb3db4909801805493519151945196511515600160901b0260ff60901b19971515600160881b0260ff60881b1996909416600160801b029590951661ffff60801b19928716600160401b026001600160801b031990951699909616989098179290921791909116929092179190911791821681178455945193949193929160ff60981b191661ffff60901b1990911617600160981b836003811115610fff57610fff611903565b02179055505060055461101591506001906118de565b60405181815290915033907ffb7b213a27fb2f9ada24dbc107b98a959d208d5a39fb37f481b80ff7cc4ec4b49060200160405180910390a2979650505050505050565b600454600090831061107c5760405162461bcd60e51b81526004016103f1906116e7565b6001600160a01b0382166110eb5760405162461bcd60e51b815260206004820152603060248201527f45746e795374616b696e673a205265776172642061646472657373206973207460448201526f6865207a65726f20616464726573732160801b60648201526084016103f1565b60006004848154811061110057611100611919565b6000918252602090912060059091020160028101549091506001600160a01b031633146111955760405162461bcd60e51b815260206004820152603760248201527f45746e795374616b696e673a206f6e6c79206e6f6465206f70657261746f722060448201527f63616e20617070726f76652062617365207374616b652100000000000000000060648201526084016103f1565b60006004820154600160801b900460ff1660038111156111b7576111b7611903565b1461121b5760405162461bcd60e51b815260206004820152602e60248201527f45746e795374616b696e673a207374616b65206d757374206265206e6577207460448201526d6f20626520617070726f7665642160901b60648201526084016103f1565b600481018054600160801b60ff60801b19909116179055600190810180546001600160a01b0319166001600160a01b03949094169390931790925550919050565b60008060008060008060008060008060008060058d8154811061128157611281611919565b60009182526020918290206040805161014081018252600590930290910180546001600160a01b0390811684526001820154811694840194909452600281015490931690820152600380830154606083015260048301546001600160401b038082166080850152600160401b82041660a084015260ff600160801b8204811660c0850152600160881b82048116151560e0850152600160901b820481161515610100850152929392610120850192600160981b909204169081111561134857611348611903565b600381111561135957611359611903565b8152505090508c816000015182602001518360400151846060015185608001518660a001518760c001518860e001518961010001518a61012001519b509b509b509b509b509b509b509b509b509b509b505091939597999b90929496989a50565b6000546201000090046001600160a01b031633146113ea5760405162461bcd60e51b81526004016103f190611733565b6001600160a01b03811661144f5760405162461bcd60e51b815260206004820152602660248201527f4f776e61626c653a206e6577206f776e657220697320746865207a65726f206160448201526564647265737360d01b60648201526084016103f1565b600080546040516001600160a01b03808516936201000090930416917f8be0079c531659141344cd1fd0a4f28419497f9722a3daafe3b4186f6b6457e091a3600080546001600160a01b03909216620100000262010000600160b01b0319909216919091179055565b80356001600160a01b03811681146114cf57600080fd5b919050565b803580151581146114cf57600080fd5b80356001600160401b03811681146114cf57600080fd5b803560ff811681146114cf57600080fd5b60006020828403121561151e57600080fd5b611527826114b8565b9392505050565b600080600080600080600060e0888a03121561154957600080fd5b611552886114b8565b9650611560602089016114e4565b955061156e604089016114b8565b945061157c606089016114e4565b935061158a608089016114fb565b925061159860a089016114d4565b91506115a660c089016114d4565b905092959891949750929550565b6000806000606084860312156115c957600080fd5b6115d2846114b8565b92506115e0602085016114e4565b91506115ee604085016114e4565b90509250925092565b60006020828403121561160957600080fd5b611527826114d4565b60006020828403121561162457600080fd5b5035919050565b6000806040838503121561163e57600080fd5b8235915061164e602084016114b8565b90509250929050565b60006020828403121561166957600080fd5b611527826114e4565b60006020828403121561168457600080fd5b611527826114fb565b6116968161192f565b9052565b6020808252602d908201527f45746e795374616b696e673a206e6f646520616464726573732069732074686560408201526c207a65726f206164647265737360981b606082015260800190565b6020808252602c908201527f45746e795374616b696e673a20496e76616c69642042617365205374616b652060408201526b49442070726f76696465642160a01b606082015260800190565b6020808252818101527f4f776e61626c653a2063616c6c6572206973206e6f7420746865206f776e6572604082015260600190565b60208082526029908201527f436f6d70616e7957616c6c65743a2063616c6c6572206973206e6f742066726f6040820152686d20636f6d70616e7960b81b606082015260800190565b6020808252602e908201527f45746e795374616b696e673a205374616b6520697320686176696e672064696660408201526d666572656e74207374617475732160901b606082015260800190565b8881526001600160a01b038881166020830152878116604083015286166060820152608081018590526001600160401b0384811660a0830152831660c0820152610100810161184d8361192f565b8260e08301529998505050505050505050565b8b81526001600160a01b038b811660208301528a8116604083015289166060820152608081018890526001600160401b0387811660a0830152861660c082015260ff851660e082015283151561010082015282151561012082015261016081016118ce61014083018461168d565b9c9b505050505050505050505050565b6000828210156118fe57634e487b7160e01b600052601160045260246000fd5b500390565b634e487b7160e01b600052602160045260246000fd5b634e487b7160e01b600052603260045260246000fd5b6004811061194d57634e487b7160e01b600052602160045260246000fd5b5056fea2646970667358221220c202052383c15129a3877e034e2bdd3c0f865047a03b018bec2a565c2ddf7bef64736f6c63430008070033",
      "opcodes": "PUSH1 0x80 PUSH1 0x40 MSTORE PUSH3 0x124F8 PUSH1 0x6 SSTORE PUSH1 0x7 DUP1 SLOAD PUSH1 0x1 PUSH1 0x1 PUSH1 0xD8 SHL SUB NOT AND PUSH22 0x124F8000000000000076C0000000000E4E1C0060000 OR SWAP1 SSTORE CALLVALUE DUP1 ISZERO PUSH2 0x3F JUMPI PUSH1 0x0 DUP1 REVERT JUMPDEST POP PUSH1 0x2 DUP1 SLOAD PUSH1 0x1 PUSH1 0x1 PUSH1 0xA0 SHL SUB NOT AND CALLER OR SWAP1 SSTORE PUSH2 0x1986 DUP1 PUSH2 0x61 PUSH1 0x0 CODECOPY PUSH1 0x0 RETURN INVALID PUSH1 0x80 PUSH1 0x40 MSTORE CALLVALUE DUP1 ISZERO PUSH2 0x10 JUMPI PUSH1 0x0 DUP1 REVERT JUMPDEST POP PUSH1 0x4 CALLDATASIZE LT PUSH2 0x173 JUMPI PUSH1 0x0 CALLDATALOAD PUSH1 0xE0 SHR DUP1 PUSH4 0x8DA5CB5B GT PUSH2 0xDE JUMPI DUP1 PUSH4 0xC573A9B6 GT PUSH2 0x97 JUMPI DUP1 PUSH4 0xDA67129A GT PUSH2 0x71 JUMPI DUP1 PUSH4 0xDA67129A EQ PUSH2 0x359 JUMPI DUP1 PUSH4 0xE99EDF41 EQ PUSH2 0x36C JUMPI DUP1 PUSH4 0xEA55E319 EQ PUSH2 0x384 JUMPI DUP1 PUSH4 0xF2FDE38B EQ PUSH2 0x3AE JUMPI PUSH1 0x0 DUP1 REVERT JUMPDEST DUP1 PUSH4 0xC573A9B6 EQ PUSH2 0x32D JUMPI DUP1 PUSH4 0xCF3C3287 EQ PUSH2 0x335 JUMPI DUP1 PUSH4 0xD7659C5A EQ PUSH2 0x346 JUMPI PUSH1 0x0 DUP1 REVERT JUMPDEST DUP1 PUSH4 0x8DA5CB5B EQ PUSH2 0x294 JUMPI DUP1 PUSH4 0x90CADC5A EQ PUSH2 0x2BE JUMPI DUP1 PUSH4 0xB6B7B3CF EQ PUSH2 0x2D1 JUMPI DUP1 PUSH4 0xB6C4AB71 EQ PUSH2 0x2E9 JUMPI DUP1 PUSH4 0xB6ECC1CC EQ PUSH2 0x307 JUMPI DUP1 PUSH4 0xB8BEC6A0 EQ PUSH2 0x31A JUMPI PUSH1 0x0 DUP1 REVERT JUMPDEST DUP1 PUSH4 0x68DB00E2 GT PUSH2 0x130 JUMPI DUP1 PUSH4 0x68DB00E2 EQ PUSH2 0x21D JUMPI DUP1 PUSH4 0x715018A6 EQ PUSH2 0x230 JUMPI DUP1 PUSH4 0x80605C93 EQ PUSH2 0x238 JUMPI DUP1 PUSH4 0x83082BB2 EQ PUSH2 0x24B JUMPI DUP1 PUSH4 0x8CD03F77 EQ PUSH2 0x26E JUMPI DUP1 PUSH4 0x8D2ADF32 EQ PUSH2 0x281 JUMPI PUSH1 0x0 DUP1 REVERT JUMPDEST DUP1 PUSH4 0x11E776FE EQ PUSH2 0x178 JUMPI DUP1 PUSH4 0x194DC6C8 EQ PUSH2 0x18D JUMPI DUP1 PUSH4 0x1C4BC729 EQ PUSH2 0x1A4 JUMPI DUP1 PUSH4 0x2E14EDAA EQ PUSH2 0x1D0 JUMPI DUP1 PUSH4 0x39AD083D EQ PUSH2 0x1E3 JUMPI DUP1 PUSH4 0x5D0D7166 EQ PUSH2 0x1F6 JUMPI JUMPDEST PUSH1 0x0 DUP1 REVERT JUMPDEST PUSH2 0x18B PUSH2 0x186 CALLDATASIZE PUSH1 0x4 PUSH2 0x1612 JUMP JUMPDEST PUSH2 0x3C1 JUMP JUMPDEST STOP JUMPDEST PUSH1 0x4 SLOAD JUMPDEST PUSH1 0x40 MLOAD SWAP1 DUP2 MSTORE PUSH1 0x20 ADD JUMPDEST PUSH1 0x40 MLOAD DUP1 SWAP2 SUB SWAP1 RETURN JUMPDEST PUSH1 0x7 SLOAD PUSH4 0x1000000 SWAP1 DIV PUSH1 0x1 PUSH1 0x1 PUSH1 0x40 SHL SUB AND JUMPDEST PUSH1 0x40 MLOAD PUSH1 0x1 PUSH1 0x1 PUSH1 0x40 SHL SUB SWAP1 SWAP2 AND DUP2 MSTORE PUSH1 0x20 ADD PUSH2 0x19B JUMP JUMPDEST PUSH2 0x18B PUSH2 0x1DE CALLDATASIZE PUSH1 0x4 PUSH2 0x150C JUMP JUMPDEST PUSH2 0x3FF JUMP JUMPDEST PUSH2 0x18B PUSH2 0x1F1 CALLDATASIZE PUSH1 0x4 PUSH2 0x1672 JUMP JUMPDEST PUSH2 0x456 JUMP JUMPDEST PUSH2 0x209 PUSH2 0x204 CALLDATASIZE PUSH1 0x4 PUSH2 0x1612 JUMP JUMPDEST PUSH2 0x4A2 JUMP JUMPDEST PUSH1 0x40 MLOAD PUSH2 0x19B SWAP9 SWAP8 SWAP7 SWAP6 SWAP5 SWAP4 SWAP3 SWAP2 SWAP1 PUSH2 0x17FF JUMP JUMPDEST PUSH2 0x191 PUSH2 0x22B CALLDATASIZE PUSH1 0x4 PUSH2 0x15B4 JUMP JUMPDEST PUSH2 0x5B1 JUMP JUMPDEST PUSH2 0x18B PUSH2 0x876 JUMP JUMPDEST PUSH2 0x18B PUSH2 0x246 CALLDATASIZE PUSH1 0x4 PUSH2 0x1672 JUMP JUMPDEST PUSH2 0x8F7 JUMP JUMPDEST PUSH2 0x25E PUSH2 0x259 CALLDATASIZE PUSH1 0x4 PUSH2 0x1612 JUMP JUMPDEST PUSH2 0x945 JUMP JUMPDEST PUSH1 0x40 MLOAD SWAP1 ISZERO ISZERO DUP2 MSTORE PUSH1 0x20 ADD PUSH2 0x19B JUMP JUMPDEST PUSH2 0x25E PUSH2 0x27C CALLDATASIZE PUSH1 0x4 PUSH2 0x1612 JUMP JUMPDEST PUSH2 0xA69 JUMP JUMPDEST PUSH2 0x18B PUSH2 0x28F CALLDATASIZE PUSH1 0x4 PUSH2 0x1657 JUMP JUMPDEST PUSH2 0xB92 JUMP JUMPDEST PUSH1 0x0 SLOAD PUSH3 0x10000 SWAP1 DIV PUSH1 0x1 PUSH1 0x1 PUSH1 0xA0 SHL SUB AND PUSH1 0x40 MLOAD PUSH1 0x1 PUSH1 0x1 PUSH1 0xA0 SHL SUB SWAP1 SWAP2 AND DUP2 MSTORE PUSH1 0x20 ADD PUSH2 0x19B JUMP JUMPDEST PUSH2 0x18B PUSH2 0x2CC CALLDATASIZE PUSH1 0x4 PUSH2 0x150C JUMP JUMPDEST PUSH2 0xBEF JUMP JUMPDEST PUSH1 0x7 SLOAD PUSH1 0x1 PUSH1 0x58 SHL SWAP1 DIV PUSH1 0x1 PUSH1 0x1 PUSH1 0x40 SHL SUB AND PUSH2 0x1B8 JUMP JUMPDEST PUSH1 0x7 SLOAD PUSH2 0x100 SWAP1 DIV PUSH1 0xFF AND JUMPDEST PUSH1 0x40 MLOAD PUSH1 0xFF SWAP1 SWAP2 AND DUP2 MSTORE PUSH1 0x20 ADD PUSH2 0x19B JUMP JUMPDEST PUSH2 0x18B PUSH2 0x315 CALLDATASIZE PUSH1 0x4 PUSH2 0x1657 JUMP JUMPDEST PUSH2 0xC40 JUMP JUMPDEST PUSH2 0x18B PUSH2 0x328 CALLDATASIZE PUSH1 0x4 PUSH2 0x15F7 JUMP JUMPDEST PUSH2 0xC9D JUMP JUMPDEST PUSH1 0x5 SLOAD PUSH2 0x191 JUMP JUMPDEST PUSH1 0x7 SLOAD PUSH3 0x10000 SWAP1 DIV PUSH1 0xFF AND PUSH2 0x2F5 JUMP JUMPDEST PUSH2 0x191 PUSH2 0x354 CALLDATASIZE PUSH1 0x4 PUSH2 0x152E JUMP JUMPDEST PUSH2 0xCE0 JUMP JUMPDEST PUSH2 0x25E PUSH2 0x367 CALLDATASIZE PUSH1 0x4 PUSH2 0x162B JUMP JUMPDEST PUSH2 0x1058 JUMP JUMPDEST PUSH1 0x7 SLOAD PUSH1 0x1 PUSH1 0x98 SHL SWAP1 DIV PUSH1 0x1 PUSH1 0x1 PUSH1 0x40 SHL SUB AND PUSH2 0x1B8 JUMP JUMPDEST PUSH2 0x397 PUSH2 0x392 CALLDATASIZE PUSH1 0x4 PUSH2 0x1612 JUMP JUMPDEST PUSH2 0x125C JUMP JUMPDEST PUSH1 0x40 MLOAD PUSH2 0x19B SWAP12 SWAP11 SWAP10 SWAP9 SWAP8 SWAP7 SWAP6 SWAP5 SWAP4 SWAP3 SWAP2 SWAP1 PUSH2 0x1860 JUMP JUMPDEST PUSH2 0x18B PUSH2 0x3BC CALLDATASIZE PUSH1 0x4 PUSH2 0x150C JUMP JUMPDEST PUSH2 0x13BA JUMP JUMPDEST CALLER PUSH1 0x0 SWAP1 DUP2 MSTORE PUSH1 0x1 PUSH1 0x20 MSTORE PUSH1 0x40 SWAP1 KECCAK256 SLOAD PUSH1 0xFF AND ISZERO PUSH2 0x3FA JUMPI PUSH1 0x40 MLOAD PUSH3 0x461BCD PUSH1 0xE5 SHL DUP2 MSTORE PUSH1 0x4 ADD PUSH2 0x3F1 SWAP1 PUSH2 0x1768 JUMP JUMPDEST PUSH1 0x40 MLOAD DUP1 SWAP2 SUB SWAP1 REVERT JUMPDEST PUSH1 0x6 SSTORE JUMP JUMPDEST PUSH1 0x0 SLOAD PUSH3 0x10000 SWAP1 DIV PUSH1 0x1 PUSH1 0x1 PUSH1 0xA0 SHL SUB AND CALLER EQ PUSH2 0x42F JUMPI PUSH1 0x40 MLOAD PUSH3 0x461BCD PUSH1 0xE5 SHL DUP2 MSTORE PUSH1 0x4 ADD PUSH2 0x3F1 SWAP1 PUSH2 0x1733 JUMP JUMPDEST PUSH1 0x1 PUSH1 0x1 PUSH1 0xA0 SHL SUB AND PUSH1 0x0 SWAP1 DUP2 MSTORE PUSH1 0x1 PUSH1 0x20 DUP2 SWAP1 MSTORE PUSH1 0x40 SWAP1 SWAP2 KECCAK256 DUP1 SLOAD PUSH1 0xFF NOT AND SWAP1 SWAP2 OR SWAP1 SSTORE JUMP JUMPDEST CALLER PUSH1 0x0 SWAP1 DUP2 MSTORE PUSH1 0x1 PUSH1 0x20 MSTORE PUSH1 0x40 SWAP1 KECCAK256 SLOAD PUSH1 0xFF AND ISZERO PUSH2 0x486 JUMPI PUSH1 0x40 MLOAD PUSH3 0x461BCD PUSH1 0xE5 SHL DUP2 MSTORE PUSH1 0x4 ADD PUSH2 0x3F1 SWAP1 PUSH2 0x1768 JUMP JUMPDEST PUSH1 0x7 DUP1 SLOAD PUSH1 0xFF SWAP1 SWAP3 AND PUSH2 0x100 MUL PUSH2 0xFF00 NOT SWAP1 SWAP3 AND SWAP2 SWAP1 SWAP2 OR SWAP1 SSTORE JUMP JUMPDEST PUSH1 0x0 DUP1 PUSH1 0x0 DUP1 PUSH1 0x0 DUP1 PUSH1 0x0 DUP1 PUSH1 0x0 PUSH1 0x4 DUP11 DUP2 SLOAD DUP2 LT PUSH2 0x4C3 JUMPI PUSH2 0x4C3 PUSH2 0x1919 JUMP JUMPDEST PUSH1 0x0 SWAP2 DUP3 MSTORE PUSH1 0x20 SWAP2 DUP3 SWAP1 KECCAK256 PUSH1 0x40 DUP1 MLOAD PUSH1 0xE0 DUP2 ADD DUP3 MSTORE PUSH1 0x5 SWAP4 SWAP1 SWAP4 MUL SWAP1 SWAP2 ADD DUP1 SLOAD PUSH1 0x1 PUSH1 0x1 PUSH1 0xA0 SHL SUB SWAP1 DUP2 AND DUP5 MSTORE PUSH1 0x1 DUP3 ADD SLOAD DUP2 AND SWAP5 DUP5 ADD SWAP5 SWAP1 SWAP5 MSTORE PUSH1 0x2 DUP2 ADD SLOAD SWAP1 SWAP4 AND SWAP1 DUP3 ADD MSTORE PUSH1 0x3 DUP1 DUP4 ADD SLOAD PUSH1 0x60 DUP4 ADD MSTORE PUSH1 0x4 DUP4 ADD SLOAD PUSH1 0x1 PUSH1 0x1 PUSH1 0x40 SHL SUB DUP1 DUP3 AND PUSH1 0x80 DUP6 ADD MSTORE PUSH1 0x1 PUSH1 0x40 SHL DUP3 DIV AND PUSH1 0xA0 DUP5 ADD MSTORE SWAP2 SWAP3 SWAP2 PUSH1 0xC0 DUP5 ADD SWAP2 PUSH1 0x1 PUSH1 0x80 SHL SWAP1 SWAP2 DIV PUSH1 0xFF AND SWAP1 DUP2 GT ISZERO PUSH2 0x55A JUMPI PUSH2 0x55A PUSH2 0x1903 JUMP JUMPDEST PUSH1 0x3 DUP2 GT ISZERO PUSH2 0x56B JUMPI PUSH2 0x56B PUSH2 0x1903 JUMP JUMPDEST DUP2 MSTORE POP POP SWAP1 POP DUP10 DUP2 PUSH1 0x0 ADD MLOAD DUP3 PUSH1 0x20 ADD MLOAD DUP4 PUSH1 0x40 ADD MLOAD DUP5 PUSH1 0x60 ADD MLOAD DUP6 PUSH1 0x80 ADD MLOAD DUP7 PUSH1 0xA0 ADD MLOAD DUP8 PUSH1 0xC0 ADD MLOAD SWAP9 POP SWAP9 POP SWAP9 POP SWAP9 POP SWAP9 POP SWAP9 POP SWAP9 POP SWAP9 POP POP SWAP2 SWAP4 SWAP6 SWAP8 POP SWAP2 SWAP4 SWAP6 SWAP8 JUMP JUMPDEST PUSH1 0x0 PUSH1 0x1 PUSH1 0x1 PUSH1 0xA0 SHL SUB DUP5 AND PUSH2 0x5D9 JUMPI PUSH1 0x40 MLOAD PUSH3 0x461BCD PUSH1 0xE5 SHL DUP2 MSTORE PUSH1 0x4 ADD PUSH2 0x3F1 SWAP1 PUSH2 0x169A JUMP JUMPDEST PUSH1 0x7 SLOAD PUSH1 0x1 PUSH1 0x1 PUSH1 0x40 SHL SUB PUSH1 0x1 PUSH1 0x58 SHL SWAP1 SWAP2 DIV DUP2 AND SWAP1 DUP5 AND LT DUP1 ISZERO SWAP1 PUSH2 0x615 JUMPI POP PUSH1 0x7 SLOAD PUSH1 0x1 PUSH1 0x1 PUSH1 0x40 SHL SUB PUSH1 0x1 PUSH1 0x98 SHL SWAP1 SWAP2 DIV DUP2 AND SWAP1 DUP5 AND GT ISZERO JUMPDEST PUSH2 0x687 JUMPI PUSH1 0x40 MLOAD PUSH3 0x461BCD PUSH1 0xE5 SHL DUP2 MSTORE PUSH1 0x20 PUSH1 0x4 DUP3 ADD MSTORE PUSH1 0x3F PUSH1 0x24 DUP3 ADD MSTORE PUSH32 0x45746E795374616B696E673A20616D6F756E74206D7573742062652062657477 PUSH1 0x44 DUP3 ADD MSTORE PUSH32 0x65656E206D696E696D756D20616E64206D6178696D756D2076616C7565732100 PUSH1 0x64 DUP3 ADD MSTORE PUSH1 0x84 ADD PUSH2 0x3F1 JUMP JUMPDEST PUSH1 0x40 DUP1 MLOAD PUSH1 0xE0 DUP2 ADD DUP3 MSTORE CALLER DUP2 MSTORE PUSH1 0x0 PUSH1 0x20 DUP3 ADD DUP2 DUP2 MSTORE PUSH1 0x1 PUSH1 0x1 PUSH1 0xA0 SHL SUB DUP9 DUP2 AND SWAP5 DUP5 ADD SWAP5 DUP6 MSTORE TIMESTAMP PUSH1 0x60 DUP6 ADD SWAP1 DUP2 MSTORE PUSH1 0x1 PUSH1 0x1 PUSH1 0x40 SHL SUB DUP10 DUP2 AND PUSH1 0x80 DUP8 ADD SWAP1 DUP2 MSTORE DUP10 DUP3 AND PUSH1 0xA0 DUP9 ADD SWAP1 DUP2 MSTORE PUSH1 0xC0 DUP9 ADD DUP8 DUP2 MSTORE PUSH1 0x4 DUP1 SLOAD PUSH1 0x1 DUP2 ADD DUP3 SSTORE SWAP9 MSTORE DUP9 MLOAD PUSH32 0x8A35ACFBC15FF81A39AE7D344FD709F28E8600B4AA8C65C6B64BFE7FE36BD19B PUSH1 0x5 SWAP1 SWAP10 MUL SWAP9 DUP10 ADD DUP1 SLOAD SWAP2 DUP9 AND PUSH1 0x1 PUSH1 0x1 PUSH1 0xA0 SHL SUB NOT SWAP3 DUP4 AND OR DUP2 SSTORE SWAP8 MLOAD PUSH32 0x8A35ACFBC15FF81A39AE7D344FD709F28E8600B4AA8C65C6B64BFE7FE36BD19C DUP11 ADD DUP1 SLOAD SWAP2 DUP10 AND SWAP2 DUP4 AND SWAP2 SWAP1 SWAP2 OR SWAP1 SSTORE SWAP10 MLOAD PUSH32 0x8A35ACFBC15FF81A39AE7D344FD709F28E8600B4AA8C65C6B64BFE7FE36BD19D DUP10 ADD DUP1 SLOAD SWAP2 SWAP1 SWAP8 AND SWAP11 AND SWAP10 SWAP1 SWAP10 OR SWAP1 SWAP5 SSTORE SWAP2 MLOAD PUSH32 0x8A35ACFBC15FF81A39AE7D344FD709F28E8600B4AA8C65C6B64BFE7FE36BD19E DUP7 ADD SSTORE SWAP1 MLOAD PUSH32 0x8A35ACFBC15FF81A39AE7D344FD709F28E8600B4AA8C65C6B64BFE7FE36BD19F SWAP1 SWAP5 ADD DUP1 SLOAD SWAP3 MLOAD DUP3 AND PUSH1 0x1 PUSH1 0x40 SHL MUL PUSH1 0x1 PUSH1 0x1 PUSH1 0x80 SHL SUB NOT SWAP1 SWAP4 AND SWAP5 SWAP1 SWAP2 AND SWAP4 SWAP1 SWAP4 OR OR DUP1 DUP4 SSTORE SWAP4 MLOAD SWAP3 SWAP4 SWAP1 SWAP3 SWAP2 SWAP1 PUSH1 0xFF PUSH1 0x80 SHL NOT AND PUSH1 0x1 PUSH1 0x80 SHL DUP4 PUSH1 0x3 DUP2 GT ISZERO PUSH2 0x821 JUMPI PUSH2 0x821 PUSH2 0x1903 JUMP JUMPDEST MUL OR SWAP1 SSTORE POP POP PUSH1 0x4 SLOAD PUSH2 0x837 SWAP2 POP PUSH1 0x1 SWAP1 PUSH2 0x18DE JUMP JUMPDEST PUSH1 0x40 MLOAD DUP2 DUP2 MSTORE SWAP1 SWAP2 POP CALLER SWAP1 PUSH32 0xD7490E816438B23E3486AEF50B4DFD914BE81021D62B1DB81226227291F6C85B SWAP1 PUSH1 0x20 ADD PUSH1 0x40 MLOAD DUP1 SWAP2 SUB SWAP1 LOG2 SWAP4 SWAP3 POP POP POP JUMP JUMPDEST PUSH1 0x0 SLOAD PUSH3 0x10000 SWAP1 DIV PUSH1 0x1 PUSH1 0x1 PUSH1 0xA0 SHL SUB AND CALLER EQ PUSH2 0x8A6 JUMPI PUSH1 0x40 MLOAD PUSH3 0x461BCD PUSH1 0xE5 SHL DUP2 MSTORE PUSH1 0x4 ADD PUSH2 0x3F1 SWAP1 PUSH2 0x1733 JUMP JUMPDEST PUSH1 0x0 DUP1 SLOAD PUSH1 0x40 MLOAD PUSH3 0x10000 SWAP1 SWAP2 DIV PUSH1 0x1 PUSH1 0x1 PUSH1 0xA0 SHL SUB AND SWAP1 PUSH32 0x8BE0079C531659141344CD1FD0A4F28419497F9722A3DAAFE3B4186F6B6457E0 SWAP1 DUP4 SWAP1 LOG3 PUSH1 0x0 DUP1 SLOAD PUSH3 0x10000 PUSH1 0x1 PUSH1 0xB0 SHL SUB NOT AND SWAP1 SSTORE JUMP JUMPDEST CALLER PUSH1 0x0 SWAP1 DUP2 MSTORE PUSH1 0x1 PUSH1 0x20 MSTORE PUSH1 0x40 SWAP1 KECCAK256 SLOAD PUSH1 0xFF AND ISZERO PUSH2 0x927 JUMPI PUSH1 0x40 MLOAD PUSH3 0x461BCD PUSH1 0xE5 SHL DUP2 MSTORE PUSH1 0x4 ADD PUSH2 0x3F1 SWAP1 PUSH2 0x1768 JUMP JUMPDEST PUSH1 0x7 DUP1 SLOAD PUSH1 0xFF SWAP1 SWAP3 AND PUSH3 0x10000 MUL PUSH3 0xFF0000 NOT SWAP1 SWAP3 AND SWAP2 SWAP1 SWAP2 OR SWAP1 SSTORE JUMP JUMPDEST PUSH1 0x4 SLOAD PUSH1 0x0 SWAP1 DUP3 LT PUSH2 0x969 JUMPI PUSH1 0x40 MLOAD PUSH3 0x461BCD PUSH1 0xE5 SHL DUP2 MSTORE PUSH1 0x4 ADD PUSH2 0x3F1 SWAP1 PUSH2 0x16E7 JUMP JUMPDEST PUSH1 0x0 PUSH1 0x4 DUP4 DUP2 SLOAD DUP2 LT PUSH2 0x97E JUMPI PUSH2 0x97E PUSH2 0x1919 JUMP JUMPDEST PUSH1 0x0 SWAP2 DUP3 MSTORE PUSH1 0x20 SWAP1 SWAP2 KECCAK256 PUSH1 0x5 SWAP1 SWAP2 MUL ADD DUP1 SLOAD SWAP1 SWAP2 POP PUSH1 0x1 PUSH1 0x1 PUSH1 0xA0 SHL SUB AND CALLER EQ PUSH2 0xA04 JUMPI PUSH1 0x40 MLOAD PUSH3 0x461BCD PUSH1 0xE5 SHL DUP2 MSTORE PUSH1 0x20 PUSH1 0x4 DUP3 ADD MSTORE PUSH1 0x31 PUSH1 0x24 DUP3 ADD MSTORE PUSH32 0x45746E795374616B696E673A204F6E6C79207374616B65722063616E2063616E PUSH1 0x44 DUP3 ADD MSTORE PUSH17 0x63656C2074686973207265717565737421 PUSH1 0x78 SHL PUSH1 0x64 DUP3 ADD MSTORE PUSH1 0x84 ADD PUSH2 0x3F1 JUMP JUMPDEST PUSH1 0x0 PUSH1 0x4 DUP3 ADD SLOAD PUSH1 0x1 PUSH1 0x80 SHL SWAP1 DIV PUSH1 0xFF AND PUSH1 0x3 DUP2 GT ISZERO PUSH2 0xA26 JUMPI PUSH2 0xA26 PUSH2 0x1903 JUMP JUMPDEST EQ PUSH2 0xA43 JUMPI PUSH1 0x40 MLOAD PUSH3 0x461BCD PUSH1 0xE5 SHL DUP2 MSTORE PUSH1 0x4 ADD PUSH2 0x3F1 SWAP1 PUSH2 0x17B1 JUMP JUMPDEST PUSH1 0x4 DUP2 ADD DUP1 SLOAD PUSH1 0x3 SWAP2 SWAP1 PUSH1 0xFF PUSH1 0x80 SHL NOT AND PUSH1 0x1 PUSH1 0x80 SHL DUP4 JUMPDEST MUL OR SWAP1 SSTORE POP PUSH1 0x1 SWAP4 SWAP3 POP POP POP JUMP JUMPDEST PUSH1 0x4 SLOAD PUSH1 0x0 SWAP1 DUP3 LT PUSH2 0xA8D JUMPI PUSH1 0x40 MLOAD PUSH3 0x461BCD PUSH1 0xE5 SHL DUP2 MSTORE PUSH1 0x4 ADD PUSH2 0x3F1 SWAP1 PUSH2 0x16E7 JUMP JUMPDEST PUSH1 0x0 PUSH1 0x4 DUP4 DUP2 SLOAD DUP2 LT PUSH2 0xAA2 JUMPI PUSH2 0xAA2 PUSH2 0x1919 JUMP JUMPDEST PUSH1 0x0 SWAP2 DUP3 MSTORE PUSH1 0x20 SWAP1 SWAP2 KECCAK256 PUSH1 0x5 SWAP1 SWAP2 MUL ADD PUSH1 0x2 DUP2 ADD SLOAD SWAP1 SWAP2 POP PUSH1 0x1 PUSH1 0x1 PUSH1 0xA0 SHL SUB AND CALLER EQ PUSH2 0xB37 JUMPI PUSH1 0x40 MLOAD PUSH3 0x461BCD PUSH1 0xE5 SHL DUP2 MSTORE PUSH1 0x20 PUSH1 0x4 DUP3 ADD MSTORE PUSH1 0x39 PUSH1 0x24 DUP3 ADD MSTORE PUSH32 0x45746E795374616B696E673A204F6E6C79206E6F6465206F70657261746F7220 PUSH1 0x44 DUP3 ADD MSTORE PUSH32 0x63616E206465636C696E65207468697320726571756573742100000000000000 PUSH1 0x64 DUP3 ADD MSTORE PUSH1 0x84 ADD PUSH2 0x3F1 JUMP JUMPDEST PUSH1 0x0 PUSH1 0x4 DUP3 ADD SLOAD PUSH1 0x1 PUSH1 0x80 SHL SWAP1 DIV PUSH1 0xFF AND PUSH1 0x3 DUP2 GT ISZERO PUSH2 0xB59 JUMPI PUSH2 0xB59 PUSH2 0x1903 JUMP JUMPDEST EQ PUSH2 0xB76 JUMPI PUSH1 0x40 MLOAD PUSH3 0x461BCD PUSH1 0xE5 SHL DUP2 MSTORE PUSH1 0x4 ADD PUSH2 0x3F1 SWAP1 PUSH2 0x17B1 JUMP JUMPDEST PUSH1 0x4 DUP2 ADD DUP1 SLOAD PUSH1 0x2 SWAP2 SWAP1 PUSH1 0xFF PUSH1 0x80 SHL NOT AND PUSH1 0x1 PUSH1 0x80 SHL DUP4 PUSH2 0xA5B JUMP JUMPDEST CALLER PUSH1 0x0 SWAP1 DUP2 MSTORE PUSH1 0x1 PUSH1 0x20 MSTORE PUSH1 0x40 SWAP1 KECCAK256 SLOAD PUSH1 0xFF AND ISZERO PUSH2 0xBC2 JUMPI PUSH1 0x40 MLOAD PUSH3 0x461BCD PUSH1 0xE5 SHL DUP2 MSTORE PUSH1 0x4 ADD PUSH2 0x3F1 SWAP1 PUSH2 0x1768 JUMP JUMPDEST PUSH1 0x7 DUP1 SLOAD PUSH1 0x1 PUSH1 0x1 PUSH1 0x40 SHL SUB SWAP1 SWAP3 AND PUSH1 0x1 PUSH1 0x58 SHL MUL PUSH8 0xFFFFFFFFFFFFFFFF PUSH1 0x58 SHL NOT SWAP1 SWAP3 AND SWAP2 SWAP1 SWAP2 OR SWAP1 SSTORE JUMP JUMPDEST PUSH1 0x0 SLOAD PUSH3 0x10000 SWAP1 DIV PUSH1 0x1 PUSH1 0x1 PUSH1 0xA0 SHL SUB AND CALLER EQ PUSH2 0xC1F JUMPI PUSH1 0x40 MLOAD PUSH3 0x461BCD PUSH1 0xE5 SHL DUP2 MSTORE PUSH1 0x4 ADD PUSH2 0x3F1 SWAP1 PUSH2 0x1733 JUMP JUMPDEST PUSH1 0x1 PUSH1 0x1 PUSH1 0xA0 SHL SUB AND PUSH1 0x0 SWAP1 DUP2 MSTORE PUSH1 0x1 PUSH1 0x20 MSTORE PUSH1 0x40 SWAP1 KECCAK256 DUP1 SLOAD PUSH1 0xFF NOT AND SWAP1 SSTORE JUMP JUMPDEST CALLER PUSH1 0x0 SWAP1 DUP2 MSTORE PUSH1 0x1 PUSH1 0x20 MSTORE PUSH1 0x40 SWAP1 KECCAK256 SLOAD PUSH1 0xFF AND ISZERO PUSH2 0xC70 JUMPI PUSH1 0x40 MLOAD PUSH3 0x461BCD PUSH1 0xE5 SHL DUP2 MSTORE PUSH1 0x4 ADD PUSH2 0x3F1 SWAP1 PUSH2 0x1768 JUMP JUMPDEST PUSH1 0x7 DUP1 SLOAD PUSH1 0x1 PUSH1 0x1 PUSH1 0x40 SHL SUB SWAP1 SWAP3 AND PUSH1 0x1 PUSH1 0x98 SHL MUL PUSH8 0xFFFFFFFFFFFFFFFF PUSH1 0x98 SHL NOT SWAP1 SWAP3 AND SWAP2 SWAP1 SWAP2 OR SWAP1 SSTORE JUMP JUMPDEST CALLER PUSH1 0x0 SWAP1 DUP2 MSTORE PUSH1 0x1 PUSH1 0x20 MSTORE PUSH1 0x40 SWAP1 KECCAK256 SLOAD PUSH1 0xFF AND ISZERO PUSH2 0xCCD JUMPI PUSH1 0x40 MLOAD PUSH3 0x461BCD PUSH1 0xE5 SHL DUP2 MSTORE PUSH1 0x4 ADD PUSH2 0x3F1 SWAP1 PUSH2 0x1768 JUMP JUMPDEST PUSH1 0x7 DUP1 SLOAD PUSH1 0xFF NOT AND SWAP2 ISZERO ISZERO SWAP2 SWAP1 SWAP2 OR SWAP1 SSTORE JUMP JUMPDEST PUSH1 0x0 PUSH1 0x1 PUSH1 0x1 PUSH1 0xA0 SHL SUB DUP9 AND PUSH2 0xD08 JUMPI PUSH1 0x40 MLOAD PUSH3 0x461BCD PUSH1 0xE5 SHL DUP2 MSTORE PUSH1 0x4 ADD PUSH2 0x3F1 SWAP1 PUSH2 0x169A JUMP JUMPDEST PUSH1 0x1 PUSH1 0x1 PUSH1 0xA0 SHL SUB DUP7 AND PUSH2 0xD76 JUMPI PUSH1 0x40 MLOAD PUSH3 0x461BCD PUSH1 0xE5 SHL DUP2 MSTORE PUSH1 0x20 PUSH1 0x4 DUP3 ADD MSTORE PUSH1 0x2F PUSH1 0x24 DUP3 ADD MSTORE PUSH32 0x45746E795374616B696E673A2072657761726420616464726573732069732074 PUSH1 0x44 DUP3 ADD MSTORE PUSH15 0x6865207A65726F2061646472657373 PUSH1 0x88 SHL PUSH1 0x64 DUP3 ADD MSTORE PUSH1 0x84 ADD PUSH2 0x3F1 JUMP JUMPDEST PUSH1 0x0 DUP8 PUSH1 0x1 PUSH1 0x1 PUSH1 0x40 SHL SUB AND GT PUSH2 0xDE7 JUMPI PUSH1 0x40 MLOAD PUSH3 0x461BCD PUSH1 0xE5 SHL DUP2 MSTORE PUSH1 0x20 PUSH1 0x4 DUP3 ADD MSTORE PUSH1 0x2F PUSH1 0x24 DUP3 ADD MSTORE PUSH32 0x45746E795374616B696E673A207265717569726520616D6F756E7420746F2062 PUSH1 0x44 DUP3 ADD MSTORE PUSH15 0x6520686967686572207468656E203 PUSH1 0x8C SHL PUSH1 0x64 DUP3 ADD MSTORE PUSH1 0x84 ADD PUSH2 0x3F1 JUMP JUMPDEST PUSH1 0x40 DUP1 MLOAD PUSH2 0x140 DUP2 ADD DUP3 MSTORE CALLER DUP2 MSTORE PUSH1 0x1 PUSH1 0x1 PUSH1 0xA0 SHL SUB DUP9 DUP2 AND PUSH1 0x20 DUP4 ADD SWAP1 DUP2 MSTORE DUP12 DUP3 AND SWAP4 DUP4 ADD SWAP4 DUP5 MSTORE TIMESTAMP PUSH1 0x60 DUP5 ADD SWAP1 DUP2 MSTORE PUSH1 0x1 PUSH1 0x1 PUSH1 0x40 SHL SUB DUP13 DUP2 AND PUSH1 0x80 DUP7 ADD SWAP1 DUP2 MSTORE DUP12 DUP3 AND PUSH1 0xA0 DUP8 ADD SWAP1 DUP2 MSTORE PUSH1 0xFF DUP13 DUP2 AND PUSH1 0xC0 DUP10 ADD SWAP1 DUP2 MSTORE DUP13 ISZERO ISZERO PUSH1 0xE0 DUP11 ADD SWAP1 DUP2 MSTORE DUP13 ISZERO ISZERO PUSH2 0x100 DUP12 ADD SWAP1 DUP2 MSTORE PUSH1 0x0 PUSH2 0x120 DUP13 ADD DUP2 DUP2 MSTORE PUSH1 0x5 DUP1 SLOAD PUSH1 0x1 DUP2 ADD DUP3 SSTORE SWAP3 DUP2 SWAP1 MSTORE DUP14 MLOAD PUSH32 0x36B6384B5ECA791C62761152D0C79BB0604C104A5FB6F4EB0703F3154BB3DB0 SWAP4 SWAP1 SWAP2 MUL SWAP3 DUP4 ADD DUP1 SLOAD SWAP2 DUP15 AND PUSH1 0x1 PUSH1 0x1 PUSH1 0xA0 SHL SUB NOT SWAP3 DUP4 AND OR DUP2 SSTORE SWAP12 MLOAD PUSH32 0x36B6384B5ECA791C62761152D0C79BB0604C104A5FB6F4EB0703F3154BB3DB1 DUP5 ADD DUP1 SLOAD SWAP2 DUP16 AND SWAP2 DUP4 AND SWAP2 SWAP1 SWAP2 OR SWAP1 SSTORE SWAP14 MLOAD PUSH32 0x36B6384B5ECA791C62761152D0C79BB0604C104A5FB6F4EB0703F3154BB3DB2 DUP4 ADD DUP1 SLOAD SWAP2 SWAP1 SWAP14 AND SWAP15 AND SWAP14 SWAP1 SWAP14 OR SWAP1 SWAP11 SSTORE SWAP7 MLOAD PUSH32 0x36B6384B5ECA791C62761152D0C79BB0604C104A5FB6F4EB0703F3154BB3DB3 DUP11 ADD SSTORE SWAP4 MLOAD PUSH32 0x36B6384B5ECA791C62761152D0C79BB0604C104A5FB6F4EB0703F3154BB3DB4 SWAP1 SWAP9 ADD DUP1 SLOAD SWAP4 MLOAD SWAP2 MLOAD SWAP5 MLOAD SWAP7 MLOAD ISZERO ISZERO PUSH1 0x1 PUSH1 0x90 SHL MUL PUSH1 0xFF PUSH1 0x90 SHL NOT SWAP8 ISZERO ISZERO PUSH1 0x1 PUSH1 0x88 SHL MUL PUSH1 0xFF PUSH1 0x88 SHL NOT SWAP7 SWAP1 SWAP5 AND PUSH1 0x1 PUSH1 0x80 SHL MUL SWAP6 SWAP1 SWAP6 AND PUSH2 0xFFFF PUSH1 0x80 SHL NOT SWAP3 DUP8 AND PUSH1 0x1 PUSH1 0x40 SHL MUL PUSH1 0x1 PUSH1 0x1 PUSH1 0x80 SHL SUB NOT SWAP1 SWAP6 AND SWAP10 SWAP1 SWAP7 AND SWAP9 SWAP1 SWAP9 OR SWAP3 SWAP1 SWAP3 OR SWAP2 SWAP1 SWAP2 AND SWAP3 SWAP1 SWAP3 OR SWAP2 SWAP1 SWAP2 OR SWAP2 DUP3 AND DUP2 OR DUP5 SSTORE SWAP5 MLOAD SWAP4 SWAP5 SWAP2 SWAP4 SWAP3 SWAP2 PUSH1 0xFF PUSH1 0x98 SHL NOT AND PUSH2 0xFFFF PUSH1 0x90 SHL NOT SWAP1 SWAP2 AND OR PUSH1 0x1 PUSH1 0x98 SHL DUP4 PUSH1 0x3 DUP2 GT ISZERO PUSH2 0xFFF JUMPI PUSH2 0xFFF PUSH2 0x1903 JUMP JUMPDEST MUL OR SWAP1 SSTORE POP POP PUSH1 0x5 SLOAD PUSH2 0x1015 SWAP2 POP PUSH1 0x1 SWAP1 PUSH2 0x18DE JUMP JUMPDEST PUSH1 0x40 MLOAD DUP2 DUP2 MSTORE SWAP1 SWAP2 POP CALLER SWAP1 PUSH32 0xFB7B213A27FB2F9ADA24DBC107B98A959D208D5A39FB37F481B80FF7CC4EC4B4 SWAP1 PUSH1 0x20 ADD PUSH1 0x40 MLOAD DUP1 SWAP2 SUB SWAP1 LOG2 SWAP8 SWAP7 POP POP POP POP POP POP POP JUMP JUMPDEST PUSH1 0x4 SLOAD PUSH1 0x0 SWAP1 DUP4 LT PUSH2 0x107C JUMPI PUSH1 0x40 MLOAD PUSH3 0x461BCD PUSH1 0xE5 SHL DUP2 MSTORE PUSH1 0x4 ADD PUSH2 0x3F1 SWAP1 PUSH2 0x16E7 JUMP JUMPDEST PUSH1 0x1 PUSH1 0x1 PUSH1 0xA0 SHL SUB DUP3 AND PUSH2 0x10EB JUMPI PUSH1 0x40 MLOAD PUSH3 0x461BCD PUSH1 0xE5 SHL DUP2 MSTORE PUSH1 0x20 PUSH1 0x4 DUP3 ADD MSTORE PUSH1 0x30 PUSH1 0x24 DUP3 ADD MSTORE PUSH32 0x45746E795374616B696E673A2052657761726420616464726573732069732074 PUSH1 0x44 DUP3 ADD MSTORE PUSH16 0x6865207A65726F206164647265737321 PUSH1 0x80 SHL PUSH1 0x64 DUP3 ADD MSTORE PUSH1 0x84 ADD PUSH2 0x3F1 JUMP JUMPDEST PUSH1 0x0 PUSH1 0x4 DUP5 DUP2 SLOAD DUP2 LT PUSH2 0x1100 JUMPI PUSH2 0x1100 PUSH2 0x1919 JUMP JUMPDEST PUSH1 0x0 SWAP2 DUP3 MSTORE PUSH1 0x20 SWAP1 SWAP2 KECCAK256 PUSH1 0x5 SWAP1 SWAP2 MUL ADD PUSH1 0x2 DUP2 ADD SLOAD SWAP1 SWAP2 POP PUSH1 0x1 PUSH1 0x1 PUSH1 0xA0 SHL SUB AND CALLER EQ PUSH2 0x1195 JUMPI PUSH1 0x40 MLOAD PUSH3 0x461BCD PUSH1 0xE5 SHL DUP2 MSTORE PUSH1 0x20 PUSH1 0x4 DUP3 ADD MSTORE PUSH1 0x37 PUSH1 0x24 DUP3 ADD MSTORE PUSH32 0x45746E795374616B696E673A206F6E6C79206E6F6465206F70657261746F7220 PUSH1 0x44 DUP3 ADD MSTORE PUSH32 0x63616E20617070726F76652062617365207374616B6521000000000000000000 PUSH1 0x64 DUP3 ADD MSTORE PUSH1 0x84 ADD PUSH2 0x3F1 JUMP JUMPDEST PUSH1 0x0 PUSH1 0x4 DUP3 ADD SLOAD PUSH1 0x1 PUSH1 0x80 SHL SWAP1 DIV PUSH1 0xFF AND PUSH1 0x3 DUP2 GT ISZERO PUSH2 0x11B7 JUMPI PUSH2 0x11B7 PUSH2 0x1903 JUMP JUMPDEST EQ PUSH2 0x121B JUMPI PUSH1 0x40 MLOAD PUSH3 0x461BCD PUSH1 0xE5 SHL DUP2 MSTORE PUSH1 0x20 PUSH1 0x4 DUP3 ADD MSTORE PUSH1 0x2E PUSH1 0x24 DUP3 ADD MSTORE PUSH32 0x45746E795374616B696E673A207374616B65206D757374206265206E65772074 PUSH1 0x44 DUP3 ADD MSTORE PUSH14 0x6F20626520617070726F76656421 PUSH1 0x90 SHL PUSH1 0x64 DUP3 ADD MSTORE PUSH1 0x84 ADD PUSH2 0x3F1 JUMP JUMPDEST PUSH1 0x4 DUP2 ADD DUP1 SLOAD PUSH1 0x1 PUSH1 0x80 SHL PUSH1 0xFF PUSH1 0x80 SHL NOT SWAP1 SWAP2 AND OR SWAP1 SSTORE PUSH1 0x1 SWAP1 DUP2 ADD DUP1 SLOAD PUSH1 0x1 PUSH1 0x1 PUSH1 0xA0 SHL SUB NOT AND PUSH1 0x1 PUSH1 0x1 PUSH1 0xA0 SHL SUB SWAP5 SWAP1 SWAP5 AND SWAP4 SWAP1 SWAP4 OR SWAP1 SWAP3 SSTORE POP SWAP2 SWAP1 POP JUMP JUMPDEST PUSH1 0x0 DUP1 PUSH1 0x0 DUP1 PUSH1 0x0 DUP1 PUSH1 0x0 DUP1 PUSH1 0x0 DUP1 PUSH1 0x0 DUP1 PUSH1 0x5 DUP14 DUP2 SLOAD DUP2 LT PUSH2 0x1281 JUMPI PUSH2 0x1281 PUSH2 0x1919 JUMP JUMPDEST PUSH1 0x0 SWAP2 DUP3 MSTORE PUSH1 0x20 SWAP2 DUP3 SWAP1 KECCAK256 PUSH1 0x40 DUP1 MLOAD PUSH2 0x140 DUP2 ADD DUP3 MSTORE PUSH1 0x5 SWAP1 SWAP4 MUL SWAP1 SWAP2 ADD DUP1 SLOAD PUSH1 0x1 PUSH1 0x1 PUSH1 0xA0 SHL SUB SWAP1 DUP2 AND DUP5 MSTORE PUSH1 0x1 DUP3 ADD SLOAD DUP2 AND SWAP5 DUP5 ADD SWAP5 SWAP1 SWAP5 MSTORE PUSH1 0x2 DUP2 ADD SLOAD SWAP1 SWAP4 AND SWAP1 DUP3 ADD MSTORE PUSH1 0x3 DUP1 DUP4 ADD SLOAD PUSH1 0x60 DUP4 ADD MSTORE PUSH1 0x4 DUP4 ADD SLOAD PUSH1 0x1 PUSH1 0x1 PUSH1 0x40 SHL SUB DUP1 DUP3 AND PUSH1 0x80 DUP6 ADD MSTORE PUSH1 0x1 PUSH1 0x40 SHL DUP3 DIV AND PUSH1 0xA0 DUP5 ADD MSTORE PUSH1 0xFF PUSH1 0x1 PUSH1 0x80 SHL DUP3 DIV DUP2 AND PUSH1 0xC0 DUP6 ADD MSTORE PUSH1 0x1 PUSH1 0x88 SHL DUP3 DIV DUP2 AND ISZERO ISZERO PUSH1 0xE0 DUP6 ADD MSTORE PUSH1 0x1 PUSH1 0x90 SHL DUP3 DIV DUP2 AND ISZERO ISZERO PUSH2 0x100 DUP6 ADD MSTORE SWAP3 SWAP4 SWAP3 PUSH2 0x120 DUP6 ADD SWAP3 PUSH1 0x1 PUSH1 0x98 SHL SWAP1 SWAP3 DIV AND SWAP1 DUP2 GT ISZERO PUSH2 0x1348 JUMPI PUSH2 0x1348 PUSH2 0x1903 JUMP JUMPDEST PUSH1 0x3 DUP2 GT ISZERO PUSH2 0x1359 JUMPI PUSH2 0x1359 PUSH2 0x1903 JUMP JUMPDEST DUP2 MSTORE POP POP SWAP1 POP DUP13 DUP2 PUSH1 0x0 ADD MLOAD DUP3 PUSH1 0x20 ADD MLOAD DUP4 PUSH1 0x40 ADD MLOAD DUP5 PUSH1 0x60 ADD MLOAD DUP6 PUSH1 0x80 ADD MLOAD DUP7 PUSH1 0xA0 ADD MLOAD DUP8 PUSH1 0xC0 ADD MLOAD DUP9 PUSH1 0xE0 ADD MLOAD DUP10 PUSH2 0x100 ADD MLOAD DUP11 PUSH2 0x120 ADD MLOAD SWAP12 POP SWAP12 POP SWAP12 POP SWAP12 POP SWAP12 POP SWAP12 POP SWAP12 POP SWAP12 POP SWAP12 POP SWAP12 POP SWAP12 POP POP SWAP2 SWAP4 SWAP6 SWAP8 SWAP10 SWAP12 SWAP1 SWAP3 SWAP5 SWAP7 SWAP9 SWAP11 POP JUMP JUMPDEST PUSH1 0x0 SLOAD PUSH3 0x10000 SWAP1 DIV PUSH1 0x1 PUSH1 0x1 PUSH1 0xA0 SHL SUB AND CALLER EQ PUSH2 0x13EA JUMPI PUSH1 0x40 MLOAD PUSH3 0x461BCD PUSH1 0xE5 SHL DUP2 MSTORE PUSH1 0x4 ADD PUSH2 0x3F1 SWAP1 PUSH2 0x1733 JUMP JUMPDEST PUSH1 0x1 PUSH1 0x1 PUSH1 0xA0 SHL SUB DUP2 AND PUSH2 0x144F JUMPI PUSH1 0x40 MLOAD PUSH3 0x461BCD PUSH1 0xE5 SHL DUP2 MSTORE PUSH1 0x20 PUSH1 0x4 DUP3 ADD MSTORE PUSH1 0x26 PUSH1 0x24 DUP3 ADD MSTORE PUSH32 0x4F776E61626C653A206E6577206F776E657220697320746865207A65726F2061 PUSH1 0x44 DUP3 ADD MSTORE PUSH6 0x646472657373 PUSH1 0xD0 SHL PUSH1 0x64 DUP3 ADD MSTORE PUSH1 0x84 ADD PUSH2 0x3F1 JUMP JUMPDEST PUSH1 0x0 DUP1 SLOAD PUSH1 0x40 MLOAD PUSH1 0x1 PUSH1 0x1 PUSH1 0xA0 SHL SUB DUP1 DUP6 AND SWAP4 PUSH3 0x10000 SWAP1 SWAP4 DIV AND SWAP2 PUSH32 0x8BE0079C531659141344CD1FD0A4F28419497F9722A3DAAFE3B4186F6B6457E0 SWAP2 LOG3 PUSH1 0x0 DUP1 SLOAD PUSH1 0x1 PUSH1 0x1 PUSH1 0xA0 SHL SUB SWAP1 SWAP3 AND PUSH3 0x10000 MUL PUSH3 0x10000 PUSH1 0x1 PUSH1 0xB0 SHL SUB NOT SWAP1 SWAP3 AND SWAP2 SWAP1 SWAP2 OR SWAP1 SSTORE JUMP JUMPDEST DUP1 CALLDATALOAD PUSH1 0x1 PUSH1 0x1 PUSH1 0xA0 SHL SUB DUP2 AND DUP2 EQ PUSH2 0x14CF JUMPI PUSH1 0x0 DUP1 REVERT JUMPDEST SWAP2 SWAP1 POP JUMP JUMPDEST DUP1 CALLDATALOAD DUP1 ISZERO ISZERO DUP2 EQ PUSH2 0x14CF JUMPI PUSH1 0x0 DUP1 REVERT JUMPDEST DUP1 CALLDATALOAD PUSH1 0x1 PUSH1 0x1 PUSH1 0x40 SHL SUB DUP2 AND DUP2 EQ PUSH2 0x14CF JUMPI PUSH1 0x0 DUP1 REVERT JUMPDEST DUP1 CALLDATALOAD PUSH1 0xFF DUP2 AND DUP2 EQ PUSH2 0x14CF JUMPI PUSH1 0x0 DUP1 REVERT JUMPDEST PUSH1 0x0 PUSH1 0x20 DUP3 DUP5 SUB SLT ISZERO PUSH2 0x151E JUMPI PUSH1 0x0 DUP1 REVERT JUMPDEST PUSH2 0x1527 DUP3 PUSH2 0x14B8 JUMP JUMPDEST SWAP4 SWAP3 POP POP POP JUMP JUMPDEST PUSH1 0x0 DUP1 PUSH1 0x0 DUP1 PUSH1 0x0 DUP1 PUSH1 0x0 PUSH1 0xE0 DUP9 DUP11 SUB SLT ISZERO PUSH2 0x1549 JUMPI PUSH1 0x0 DUP1 REVERT JUMPDEST PUSH2 0x1552 DUP9 PUSH2 0x14B8 JUMP JUMPDEST SWAP7 POP PUSH2 0x1560 PUSH1 0x20 DUP10 ADD PUSH2 0x14E4 JUMP JUMPDEST SWAP6 POP PUSH2 0x156E PUSH1 0x40 DUP10 ADD PUSH2 0x14B8 JUMP JUMPDEST SWAP5 POP PUSH2 0x157C PUSH1 0x60 DUP10 ADD PUSH2 0x14E4 JUMP JUMPDEST SWAP4 POP PUSH2 0x158A PUSH1 0x80 DUP10 ADD PUSH2 0x14FB JUMP JUMPDEST SWAP3 POP PUSH2 0x1598 PUSH1 0xA0 DUP10 ADD PUSH2 0x14D4 JUMP JUMPDEST SWAP2 POP PUSH2 0x15A6 PUSH1 0xC0 DUP10 ADD PUSH2 0x14D4 JUMP JUMPDEST SWAP1 POP SWAP3 SWAP6 SWAP9 SWAP2 SWAP5 SWAP8 POP SWAP3 SWAP6 POP JUMP JUMPDEST PUSH1 0x0 DUP1 PUSH1 0x0 PUSH1 0x60 DUP5 DUP7 SUB SLT ISZERO PUSH2 0x15C9 JUMPI PUSH1 0x0 DUP1 REVERT JUMPDEST PUSH2 0x15D2 DUP5 PUSH2 0x14B8 JUMP JUMPDEST SWAP3 POP PUSH2 0x15E0 PUSH1 0x20 DUP6 ADD PUSH2 0x14E4 JUMP JUMPDEST SWAP2 POP PUSH2 0x15EE PUSH1 0x40 DUP6 ADD PUSH2 0x14E4 JUMP JUMPDEST SWAP1 POP SWAP3 POP SWAP3 POP SWAP3 JUMP JUMPDEST PUSH1 0x0 PUSH1 0x20 DUP3 DUP5 SUB SLT ISZERO PUSH2 0x1609 JUMPI PUSH1 0x0 DUP1 REVERT JUMPDEST PUSH2 0x1527 DUP3 PUSH2 0x14D4 JUMP JUMPDEST PUSH1 0x0 PUSH1 0x20 DUP3 DUP5 SUB SLT ISZERO PUSH2 0x1624 JUMPI PUSH1 0x0 DUP1 REVERT JUMPDEST POP CALLDATALOAD SWAP2 SWAP1 POP JUMP JUMPDEST PUSH1 0x0 DUP1 PUSH1 0x40 DUP4 DUP6 SUB SLT ISZERO PUSH2 0x163E JUMPI PUSH1 0x0 DUP1 REVERT JUMPDEST DUP3 CALLDATALOAD SWAP2 POP PUSH2 0x164E PUSH1 0x20 DUP5 ADD PUSH2 0x14B8 JUMP JUMPDEST SWAP1 POP SWAP3 POP SWAP3 SWAP1 POP JUMP JUMPDEST PUSH1 0x0 PUSH1 0x20 DUP3 DUP5 SUB SLT ISZERO PUSH2 0x1669 JUMPI PUSH1 0x0 DUP1 REVERT JUMPDEST PUSH2 0x1527 DUP3 PUSH2 0x14E4 JUMP JUMPDEST PUSH1 0x0 PUSH1 0x20 DUP3 DUP5 SUB SLT ISZERO PUSH2 0x1684 JUMPI PUSH1 0x0 DUP1 REVERT JUMPDEST PUSH2 0x1527 DUP3 PUSH2 0x14FB JUMP JUMPDEST PUSH2 0x1696 DUP2 PUSH2 0x192F JUMP JUMPDEST SWAP1 MSTORE JUMP JUMPDEST PUSH1 0x20 DUP1 DUP3 MSTORE PUSH1 0x2D SWAP1 DUP3 ADD MSTORE PUSH32 0x45746E795374616B696E673A206E6F6465206164647265737320697320746865 PUSH1 0x40 DUP3 ADD MSTORE PUSH13 0x207A65726F2061646472657373 PUSH1 0x98 SHL PUSH1 0x60 DUP3 ADD MSTORE PUSH1 0x80 ADD SWAP1 JUMP JUMPDEST PUSH1 0x20 DUP1 DUP3 MSTORE PUSH1 0x2C SWAP1 DUP3 ADD MSTORE PUSH32 0x45746E795374616B696E673A20496E76616C69642042617365205374616B6520 PUSH1 0x40 DUP3 ADD MSTORE PUSH12 0x49442070726F766964656421 PUSH1 0xA0 SHL PUSH1 0x60 DUP3 ADD MSTORE PUSH1 0x80 ADD SWAP1 JUMP JUMPDEST PUSH1 0x20 DUP1 DUP3 MSTORE DUP2 DUP2 ADD MSTORE PUSH32 0x4F776E61626C653A2063616C6C6572206973206E6F7420746865206F776E6572 PUSH1 0x40 DUP3 ADD MSTORE PUSH1 0x60 ADD SWAP1 JUMP JUMPDEST PUSH1 0x20 DUP1 DUP3 MSTORE PUSH1 0x29 SWAP1 DUP3 ADD MSTORE PUSH32 0x436F6D70616E7957616C6C65743A2063616C6C6572206973206E6F742066726F PUSH1 0x40 DUP3 ADD MSTORE PUSH9 0x6D20636F6D70616E79 PUSH1 0xB8 SHL PUSH1 0x60 DUP3 ADD MSTORE PUSH1 0x80 ADD SWAP1 JUMP JUMPDEST PUSH1 0x20 DUP1 DUP3 MSTORE PUSH1 0x2E SWAP1 DUP3 ADD MSTORE PUSH32 0x45746E795374616B696E673A205374616B6520697320686176696E6720646966 PUSH1 0x40 DUP3 ADD MSTORE PUSH14 0x666572656E742073746174757321 PUSH1 0x90 SHL PUSH1 0x60 DUP3 ADD MSTORE PUSH1 0x80 ADD SWAP1 JUMP JUMPDEST DUP9 DUP2 MSTORE PUSH1 0x1 PUSH1 0x1 PUSH1 0xA0 SHL SUB DUP9 DUP2 AND PUSH1 0x20 DUP4 ADD MSTORE DUP8 DUP2 AND PUSH1 0x40 DUP4 ADD MSTORE DUP7 AND PUSH1 0x60 DUP3 ADD MSTORE PUSH1 0x80 DUP2 ADD DUP6 SWAP1 MSTORE PUSH1 0x1 PUSH1 0x1 PUSH1 0x40 SHL SUB DUP5 DUP2 AND PUSH1 0xA0 DUP4 ADD MSTORE DUP4 AND PUSH1 0xC0 DUP3 ADD MSTORE PUSH2 0x100 DUP2 ADD PUSH2 0x184D DUP4 PUSH2 0x192F JUMP JUMPDEST DUP3 PUSH1 0xE0 DUP4 ADD MSTORE SWAP10 SWAP9 POP POP POP POP POP POP POP POP POP JUMP JUMPDEST DUP12 DUP2 MSTORE PUSH1 0x1 PUSH1 0x1 PUSH1 0xA0 SHL SUB DUP12 DUP2 AND PUSH1 0x20 DUP4 ADD MSTORE DUP11 DUP2 AND PUSH1 0x40 DUP4 ADD MSTORE DUP10 AND PUSH1 0x60 DUP3 ADD MSTORE PUSH1 0x80 DUP2 ADD DUP9 SWAP1 MSTORE PUSH1 0x1 PUSH1 0x1 PUSH1 0x40 SHL SUB DUP8 DUP2 AND PUSH1 0xA0 DUP4 ADD MSTORE DUP7 AND PUSH1 0xC0 DUP3 ADD MSTORE PUSH1 0xFF DUP6 AND PUSH1 0xE0 DUP3 ADD MSTORE DUP4 ISZERO ISZERO PUSH2 0x100 DUP3 ADD MSTORE DUP3 ISZERO ISZERO PUSH2 0x120 DUP3 ADD MSTORE PUSH2 0x160 DUP2 ADD PUSH2 0x18CE PUSH2 0x140 DUP4 ADD DUP5 PUSH2 0x168D JUMP JUMPDEST SWAP13 SWAP12 POP POP POP POP POP POP POP POP POP POP POP POP JUMP JUMPDEST PUSH1 0x0 DUP3 DUP3 LT ISZERO PUSH2 0x18FE JUMPI PUSH4 0x4E487B71 PUSH1 0xE0 SHL PUSH1 0x0 MSTORE PUSH1 0x11 PUSH1 0x4 MSTORE PUSH1 0x24 PUSH1 0x0 REVERT JUMPDEST POP SUB SWAP1 JUMP JUMPDEST PUSH4 0x4E487B71 PUSH1 0xE0 SHL PUSH1 0x0 MSTORE PUSH1 0x21 PUSH1 0x4 MSTORE PUSH1 0x24 PUSH1 0x0 REVERT JUMPDEST PUSH4 0x4E487B71 PUSH1 0xE0 SHL PUSH1 0x0 MSTORE PUSH1 0x32 PUSH1 0x4 MSTORE PUSH1 0x24 PUSH1 0x0 REVERT JUMPDEST PUSH1 0x4 DUP2 LT PUSH2 0x194D JUMPI PUSH4 0x4E487B71 PUSH1 0xE0 SHL PUSH1 0x0 MSTORE PUSH1 0x21 PUSH1 0x4 MSTORE PUSH1 0x24 PUSH1 0x0 REVERT JUMPDEST POP JUMP INVALID LOG2 PUSH5 0x6970667358 0x22 SLT KECCAK256 0xC2 MUL SDIV 0x23 DUP4 0xC1 MLOAD 0x29 LOG3 DUP8 PUSH31 0x34E2BDD3C0F865047A03B018BEC2A565C2DDF7BEF64736F6C634300080700 CALLER "
    },
    "gasEstimates": {
      "creation": {
        "codeDepositCost": "1306800",
        "executionCost": "71940",
        "totalCost": "1378740"
      },
      "external": {
        "addBaseStakeRequest(address,uint64,uint64)": "infinite",
        "addCompanyWallet(address)": "26863",
        "addExtendedStakeRequest(address,uint64,address,uint64,uint8,bool,bool)": "infinite",
        "approveBaseStakeRequest(uint256,address)": "57676",
        "cancelBaseStakeRequest(uint256)": "33311",
        "declineBaseStakeRequest(uint256)": "33350",
        "getBaseStake(uint256)": "13969",
        "getBaseStakeRequestTotal()": "2316",
        "getCurrentApyPercentage()": "2396",
        "getExtendedStake(uint256)": "14233",
        "getExtendedStakeRequestTotal()": "2326",
        "getMaxBaseStakeAmount()": "2414",
        "getMinBaseStakeAmount()": "2415",
        "getMinPeriodForStake()": "2385",
        "getStakeTotalSupply()": "2399",
        "owner()": "2353",
        "removeCompanyWallet(address)": "26800",
        "renounceOwnership()": "30229",
        "setApyPercentage(uint8)": "26807",
        "setMaxAmountForBaseStake(uint64)": "26887",
        "setMaxTokens(uint256)": "24542",
        "setMinAmountForBaseStake(uint64)": "26909",
        "setMinPeriodForBaseStake(uint8)": "26852",
        "setStakingStatus(bool)": "26856",
        "transferOwnership(address)": "30543"
      }
    },
    "methodIdentifiers": {
      "addBaseStakeRequest(address,uint64,uint64)": "68db00e2",
      "addCompanyWallet(address)": "2e14edaa",
      "addExtendedStakeRequest(address,uint64,address,uint64,uint8,bool,bool)": "d7659c5a",
      "approveBaseStakeRequest(uint256,address)": "da67129a",
      "cancelBaseStakeRequest(uint256)": "83082bb2",
      "declineBaseStakeRequest(uint256)": "8cd03f77",
      "getBaseStake(uint256)": "5d0d7166",
      "getBaseStakeRequestTotal()": "194dc6c8",
      "getCurrentApyPercentage()": "b6c4ab71",
      "getExtendedStake(uint256)": "ea55e319",
      "getExtendedStakeRequestTotal()": "c573a9b6",
      "getMaxBaseStakeAmount()": "e99edf41",
      "getMinBaseStakeAmount()": "b6b7b3cf",
      "getMinPeriodForStake()": "cf3c3287",
      "getStakeTotalSupply()": "1c4bc729",
      "owner()": "8da5cb5b",
      "removeCompanyWallet(address)": "90cadc5a",
      "renounceOwnership()": "715018a6",
      "setApyPercentage(uint8)": "80605c93",
      "setMaxAmountForBaseStake(uint64)": "b6ecc1cc",
      "setMaxTokens(uint256)": "11e776fe",
      "setMinAmountForBaseStake(uint64)": "8d2adf32",
      "setMinPeriodForBaseStake(uint8)": "39ad083d",
      "setStakingStatus(bool)": "b8bec6a0",
      "transferOwnership(address)": "f2fde38b"
    }
  },
  "abi": [
    {
      "inputs": [],
      "stateMutability": "nonpayable",
      "type": "constructor"
    },
    {
      "anonymous": false,
      "inputs": [
        {
          "indexed": true,
          "internalType": "address",
          "name": "staker",
          "type": "address"
        },
        {
          "indexed": false,
          "internalType": "uint256",
          "name": "baseStakeId",
          "type": "uint256"
        }
      ],
      "name": "NewBaseStake",
      "type": "event"
    },
    {
      "anonymous": false,
      "inputs": [
        {
          "indexed": true,
          "internalType": "address",
          "name": "staker",
          "type": "address"
        },
        {
          "indexed": false,
          "internalType": "uint256",
          "name": "baseStakeId",
          "type": "uint256"
        }
      ],
      "name": "NewExtendedStake",
      "type": "event"
    },
    {
      "anonymous": false,
      "inputs": [
        {
          "indexed": true,
          "internalType": "address",
          "name": "previousOwner",
          "type": "address"
        },
        {
          "indexed": true,
          "internalType": "address",
          "name": "newOwner",
          "type": "address"
        }
      ],
      "name": "OwnershipTransferred",
      "type": "event"
    },
    {
      "inputs": [
        {
          "internalType": "address",
          "name": "nodeAddress",
          "type": "address"
        },
        {
          "internalType": "uint64",
          "name": "amount",
          "type": "uint64"
        },
        {
          "internalType": "uint64",
          "name": "period",
          "type": "uint64"
        }
      ],
      "name": "addBaseStakeRequest",
      "outputs": [
        {
          "internalType": "uint256",
          "name": "_rowNumber",
          "type": "uint256"
        }
      ],
      "stateMutability": "nonpayable",
      "type": "function"
    },
    {
      "inputs": [
        {
          "internalType": "address",
          "name": "companyAddress",
          "type": "address"
        }
      ],
      "name": "addCompanyWallet",
      "outputs": [],
      "stateMutability": "nonpayable",
      "type": "function"
    },
    {
      "inputs": [
        {
          "internalType": "address",
          "name": "nodeAddress",
          "type": "address"
        },
        {
          "internalType": "uint64",
          "name": "amount",
          "type": "uint64"
        },
        {
          "internalType": "address",
          "name": "rewardAddress",
          "type": "address"
        },
        {
          "internalType": "uint64",
          "name": "period",
          "type": "uint64"
        },
        {
          "internalType": "uint8",
          "name": "opReward",
          "type": "uint8"
        },
        {
          "internalType": "bool",
          "name": "allowMultipleOp",
          "type": "bool"
        },
        {
          "internalType": "bool",
          "name": "autoConfirm",
          "type": "bool"
        }
      ],
      "name": "addExtendedStakeRequest",
      "outputs": [
        {
          "internalType": "uint256",
          "name": "_extendedStakeId",
          "type": "uint256"
        }
      ],
      "stateMutability": "nonpayable",
      "type": "function"
    },
    {
      "inputs": [
        {
          "internalType": "uint256",
          "name": "baseStakeId",
          "type": "uint256"
        },
        {
          "internalType": "address",
          "name": "rewardAddress",
          "type": "address"
        }
      ],
      "name": "approveBaseStakeRequest",
      "outputs": [
        {
          "internalType": "bool",
          "name": "",
          "type": "bool"
        }
      ],
      "stateMutability": "nonpayable",
      "type": "function"
    },
    {
      "inputs": [
        {
          "internalType": "uint256",
          "name": "baseStakeId",
          "type": "uint256"
        }
      ],
      "name": "cancelBaseStakeRequest",
      "outputs": [
        {
          "internalType": "bool",
          "name": "",
          "type": "bool"
        }
      ],
      "stateMutability": "nonpayable",
      "type": "function"
    },
    {
      "inputs": [
        {
          "internalType": "uint256",
          "name": "baseStakeId",
          "type": "uint256"
        }
      ],
      "name": "declineBaseStakeRequest",
      "outputs": [
        {
          "internalType": "bool",
          "name": "",
          "type": "bool"
        }
      ],
      "stateMutability": "nonpayable",
      "type": "function"
    },
    {
      "inputs": [
        {
          "internalType": "uint256",
          "name": "baseStakeId",
          "type": "uint256"
        }
      ],
      "name": "getBaseStake",
      "outputs": [
        {
          "internalType": "uint256",
          "name": "_baseStakeId",
          "type": "uint256"
        },
        {
          "internalType": "address",
          "name": "stakeHolder",
          "type": "address"
        },
        {
          "internalType": "address",
          "name": "rewardAddress",
          "type": "address"
        },
        {
          "internalType": "address",
          "name": "nodeAddress",
          "type": "address"
        },
        {
          "internalType": "uint256",
          "name": "timestamp",
          "type": "uint256"
        },
        {
          "internalType": "uint64",
          "name": "amount",
          "type": "uint64"
        },
        {
          "internalType": "uint64",
          "name": "period",
          "type": "uint64"
        },
        {
          "internalType": "enum Statuses.BaseStakeStatus",
          "name": "status",
          "type": "uint8"
        }
      ],
      "stateMutability": "view",
      "type": "function"
    },
    {
      "inputs": [],
      "name": "getBaseStakeRequestTotal",
      "outputs": [
        {
          "internalType": "uint256",
          "name": "count",
          "type": "uint256"
        }
      ],
      "stateMutability": "view",
      "type": "function"
    },
    {
      "inputs": [],
      "name": "getCurrentApyPercentage",
      "outputs": [
        {
          "internalType": "uint8",
          "name": "",
          "type": "uint8"
        }
      ],
      "stateMutability": "view",
      "type": "function"
    },
    {
      "inputs": [
        {
          "internalType": "uint256",
          "name": "extendedStakeId",
          "type": "uint256"
        }
      ],
      "name": "getExtendedStake",
      "outputs": [
        {
          "internalType": "uint256",
          "name": "_baseStakeId",
          "type": "uint256"
        },
        {
          "internalType": "address",
          "name": "stakeHolder",
          "type": "address"
        },
        {
          "internalType": "address",
          "name": "rewardAddress",
          "type": "address"
        },
        {
          "internalType": "address",
          "name": "nodeAddress",
          "type": "address"
        },
        {
          "internalType": "uint256",
          "name": "timestamp",
          "type": "uint256"
        },
        {
          "internalType": "uint64",
          "name": "amount",
          "type": "uint64"
        },
        {
          "internalType": "uint64",
          "name": "period",
          "type": "uint64"
        },
        {
          "internalType": "uint8",
          "name": "operatorReward",
          "type": "uint8"
        },
        {
          "internalType": "bool",
          "name": "allowMultipleOp",
          "type": "bool"
        },
        {
          "internalType": "bool",
          "name": "autoConfirm",
          "type": "bool"
        },
        {
          "internalType": "enum Statuses.ExtendedStakeStatus",
          "name": "status",
          "type": "uint8"
        }
      ],
      "stateMutability": "view",
      "type": "function"
    },
    {
      "inputs": [],
      "name": "getExtendedStakeRequestTotal",
      "outputs": [
        {
          "internalType": "uint256",
          "name": "count",
          "type": "uint256"
        }
      ],
      "stateMutability": "view",
      "type": "function"
    },
    {
      "inputs": [],
      "name": "getMaxBaseStakeAmount",
      "outputs": [
        {
          "internalType": "uint64",
          "name": "",
          "type": "uint64"
        }
      ],
      "stateMutability": "view",
      "type": "function"
    },
    {
      "inputs": [],
      "name": "getMinBaseStakeAmount",
      "outputs": [
        {
          "internalType": "uint64",
          "name": "",
          "type": "uint64"
        }
      ],
      "stateMutability": "view",
      "type": "function"
    },
    {
      "inputs": [],
      "name": "getMinPeriodForStake",
      "outputs": [
        {
          "internalType": "uint8",
          "name": "",
          "type": "uint8"
        }
      ],
      "stateMutability": "view",
      "type": "function"
    },
    {
      "inputs": [],
      "name": "getStakeTotalSupply",
      "outputs": [
        {
          "internalType": "uint64",
          "name": "",
          "type": "uint64"
        }
      ],
      "stateMutability": "view",
      "type": "function"
    },
    {
      "inputs": [],
      "name": "owner",
      "outputs": [
        {
          "internalType": "address",
          "name": "",
          "type": "address"
        }
      ],
      "stateMutability": "view",
      "type": "function"
    },
    {
      "inputs": [
        {
          "internalType": "address",
          "name": "oldCompanyAddress",
          "type": "address"
        }
      ],
      "name": "removeCompanyWallet",
      "outputs": [],
      "stateMutability": "nonpayable",
      "type": "function"
    },
    {
      "inputs": [],
      "name": "renounceOwnership",
      "outputs": [],
      "stateMutability": "nonpayable",
      "type": "function"
    },
    {
      "inputs": [
        {
          "internalType": "uint8",
          "name": "value",
          "type": "uint8"
        }
      ],
      "name": "setApyPercentage",
      "outputs": [],
      "stateMutability": "nonpayable",
      "type": "function"
    },
    {
      "inputs": [
        {
          "internalType": "uint64",
          "name": "value",
          "type": "uint64"
        }
      ],
      "name": "setMaxAmountForBaseStake",
      "outputs": [],
      "stateMutability": "nonpayable",
      "type": "function"
    },
    {
      "inputs": [
        {
          "internalType": "uint256",
          "name": "newValue",
          "type": "uint256"
        }
      ],
      "name": "setMaxTokens",
      "outputs": [],
      "stateMutability": "nonpayable",
      "type": "function"
    },
    {
      "inputs": [
        {
          "internalType": "uint64",
          "name": "value",
          "type": "uint64"
        }
      ],
      "name": "setMinAmountForBaseStake",
      "outputs": [],
      "stateMutability": "nonpayable",
      "type": "function"
    },
    {
      "inputs": [
        {
          "internalType": "uint8",
          "name": "value",
          "type": "uint8"
        }
      ],
      "name": "setMinPeriodForBaseStake",
      "outputs": [],
      "stateMutability": "nonpayable",
      "type": "function"
    },
    {
      "inputs": [
        {
          "internalType": "bool",
          "name": "status",
          "type": "bool"
        }
      ],
      "name": "setStakingStatus",
      "outputs": [],
      "stateMutability": "nonpayable",
      "type": "function"
    },
    {
      "inputs": [
        {
          "internalType": "address",
          "name": "newOwner",
          "type": "address"
        }
      ],
      "name": "transferOwnership",
      "outputs": [],
      "stateMutability": "nonpayable",
      "type": "function"
    }
  ]
}